{
  "_format": "hh-sol-artifact-1",
  "contractName": "Token",
  "sourceName": "contracts/Token.sol",
  "abi": [
    {
      "inputs": [],
      "stateMutability": "nonpayable",
      "type": "constructor"
    },
    {
      "anonymous": false,
      "inputs": [
        {
          "indexed": true,
          "internalType": "address",
          "name": "from",
          "type": "address"
        },
        {
          "indexed": false,
          "internalType": "uint256",
          "name": "value",
          "type": "uint256"
        }
      ],
      "name": "Burn",
      "type": "event"
    },
    {
      "anonymous": false,
      "inputs": [
        {
          "indexed": true,
          "internalType": "address",
          "name": "to",
          "type": "address"
        },
        {
          "indexed": false,
          "internalType": "uint256",
          "name": "value",
          "type": "uint256"
        }
      ],
      "name": "Mint",
      "type": "event"
    },
    {
      "anonymous": false,
      "inputs": [
        {
          "indexed": true,
          "internalType": "address",
          "name": "from",
          "type": "address"
        },
        {
          "indexed": true,
          "internalType": "address",
          "name": "to",
          "type": "address"
        },
        {
          "indexed": false,
          "internalType": "uint256",
          "name": "value",
          "type": "uint256"
        }
      ],
      "name": "Transfer",
      "type": "event"
    },
    {
      "inputs": [
        {
          "internalType": "address",
          "name": "account",
          "type": "address"
        }
      ],
      "name": "balanceOf",
      "outputs": [
        {
          "internalType": "uint256",
          "name": "",
          "type": "uint256"
        }
      ],
      "stateMutability": "view",
      "type": "function"
    },
    {
      "inputs": [
        {
          "internalType": "uint256",
          "name": "amount",
          "type": "uint256"
        }
      ],
      "name": "burn",
      "outputs": [],
      "stateMutability": "nonpayable",
      "type": "function"
    },
    {
      "inputs": [],
      "name": "decimals",
      "outputs": [
        {
          "internalType": "uint8",
          "name": "",
          "type": "uint8"
        }
      ],
      "stateMutability": "view",
      "type": "function"
    },
    {
      "inputs": [
        {
          "internalType": "address",
          "name": "to",
          "type": "address"
        },
        {
          "internalType": "uint256",
          "name": "amount",
          "type": "uint256"
        }
      ],
      "name": "mint",
      "outputs": [],
      "stateMutability": "nonpayable",
      "type": "function"
    },
    {
      "inputs": [],
      "name": "name",
      "outputs": [
        {
          "internalType": "string",
          "name": "",
          "type": "string"
        }
      ],
      "stateMutability": "view",
      "type": "function"
    },
    {
      "inputs": [],
      "name": "owner",
      "outputs": [
        {
          "internalType": "address",
          "name": "",
          "type": "address"
        }
      ],
      "stateMutability": "view",
      "type": "function"
    },
    {
      "inputs": [],
      "name": "symbol",
      "outputs": [
        {
          "internalType": "string",
          "name": "",
          "type": "string"
        }
      ],
      "stateMutability": "view",
      "type": "function"
    },
    {
      "inputs": [],
      "name": "totalSupply",
      "outputs": [
        {
          "internalType": "uint256",
          "name": "",
          "type": "uint256"
        }
      ],
      "stateMutability": "view",
      "type": "function"
    },
    {
      "inputs": [
        {
          "internalType": "address",
          "name": "recipient",
          "type": "address"
        },
        {
          "internalType": "uint256",
          "name": "amount",
          "type": "uint256"
        }
      ],
      "name": "transfer",
      "outputs": [
        {
          "internalType": "bool",
          "name": "",
          "type": "bool"
        }
      ],
      "stateMutability": "nonpayable",
      "type": "function"
    }
  ],
  "bytecode": "0x60806040523480156200001157600080fd5b506040518060400160405280600b81526020017f524944414d20546f6b656e0000000000000000000000000000000000000000008152506000908162000058919062000385565b506040518060400160405280600381526020017f52554b0000000000000000000000000000000000000000000000000000000000815250600190816200009f919062000385565b506012600260006101000a81548160ff021916908360ff160217905550600060038190555033600660006101000a81548173ffffffffffffffffffffffffffffffffffffffff021916908373ffffffffffffffffffffffffffffffffffffffff1602179055506200046c565b600081519050919050565b7f4e487b7100000000000000000000000000000000000000000000000000000000600052604160045260246000fd5b7f4e487b7100000000000000000000000000000000000000000000000000000000600052602260045260246000fd5b600060028204905060018216806200018d57607f821691505b602082108103620001a357620001a262000145565b5b50919050565b60008190508160005260206000209050919050565b60006020601f8301049050919050565b600082821b905092915050565b6000600883026200020d7fffffffffffffffffffffffffffffffffffffffffffffffffffffffffffffffff82620001ce565b620002198683620001ce565b95508019841693508086168417925050509392505050565b6000819050919050565b6000819050919050565b600062000266620002606200025a8462000231565b6200023b565b62000231565b9050919050565b6000819050919050565b620002828362000245565b6200029a62000291826200026d565b848454620001db565b825550505050565b600090565b620002b1620002a2565b620002be81848462000277565b505050565b5b81811015620002e657620002da600082620002a7565b600181019050620002c4565b5050565b601f8211156200033557620002ff81620001a9565b6200030a84620001be565b810160208510156200031a578190505b620003326200032985620001be565b830182620002c3565b50505b505050565b600082821c905092915050565b60006200035a600019846008026200033a565b1980831691505092915050565b600062000375838362000347565b9150826002028217905092915050565b62000390826200010b565b67ffffffffffffffff811115620003ac57620003ab62000116565b5b620003b8825462000174565b620003c5828285620002ea565b600060209050601f831160018114620003fd5760008415620003e8578287015190505b620003f4858262000367565b86555062000464565b601f1984166200040d86620001a9565b60005b82811015620004375784890151825560018201915060208501945060208101905062000410565b8683101562000457578489015162000453601f89168262000347565b8355505b6001600288020188555050505b505050505050565b610d39806200047c6000396000f3fe608060405234801561001057600080fd5b50600436106100935760003560e01c806342966c681161006657806342966c681461010e57806370a082311461012a5780638da5cb5b1461015a57806395d89b4114610178578063a9059cbb1461019657610093565b806306fdde031461009857806318160ddd146100b6578063313ce567146100d457806340c10f19146100f2575b600080fd5b6100a06101c6565b6040516100ad91906108f8565b60405180910390f35b6100be610254565b6040516100cb9190610933565b60405180910390f35b6100dc61025a565b6040516100e9919061096a565b60405180910390f35b61010c60048036038101906101079190610a14565b61026d565b005b61012860048036038101906101239190610a54565b610424565b005b610144600480360381019061013f9190610a81565b6105cc565b6040516101519190610933565b60405180910390f35b610162610615565b60405161016f9190610abd565b60405180910390f35b61018061063b565b60405161018d91906108f8565b60405180910390f35b6101b060048036038101906101ab9190610a14565b6106c9565b6040516101bd9190610af3565b60405180910390f35b600080546101d390610b3d565b80601f01602080910402602001604051908101604052809291908181526020018280546101ff90610b3d565b801561024c5780601f106102215761010080835404028352916020019161024c565b820191906000526020600020905b81548152906001019060200180831161022f57829003601f168201915b505050505081565b60035481565b600260009054906101000a900460ff1681565b600660009054906101000a900473ffffffffffffffffffffffffffffffffffffffff1673ffffffffffffffffffffffffffffffffffffffff163373ffffffffffffffffffffffffffffffffffffffff16146102fd576040517f08c379a00000000000000000000000000000000000000000000000000000000081526004016102f490610be0565b60405180910390fd5b806003600082825461030f9190610c2f565b9250508190555080600460008473ffffffffffffffffffffffffffffffffffffffff1673ffffffffffffffffffffffffffffffffffffffff16815260200190815260200160002060008282546103659190610c2f565b925050819055508173ffffffffffffffffffffffffffffffffffffffff167f0f6798a560793a54c3bcfe86a93cde1e73087d944c0ea20544137d4121396885826040516103b29190610933565b60405180910390a28173ffffffffffffffffffffffffffffffffffffffff16600073ffffffffffffffffffffffffffffffffffffffff167fddf252ad1be2c89b69c2b068fc378daa952ba7f163c4a11628f55a4df523b3ef836040516104189190610933565b60405180910390a35050565b600460003373ffffffffffffffffffffffffffffffffffffffff1673ffffffffffffffffffffffffffffffffffffffff168152602001908152602001600020548111156104a6576040517f08c379a000000000000000000000000000000000000000000000000000000000815260040161049d90610caf565b60405180910390fd5b80600460003373ffffffffffffffffffffffffffffffffffffffff1673ffffffffffffffffffffffffffffffffffffffff16815260200190815260200160002060008282546104f59190610ccf565b92505081905550806003600082825461050e9190610ccf565b925050819055503373ffffffffffffffffffffffffffffffffffffffff167fcc16f5dbb4873280815c1ee09dbd06736cffcc184412cf7a71a0fdb75d397ca58260405161055b9190610933565b60405180910390a2600073ffffffffffffffffffffffffffffffffffffffff163373ffffffffffffffffffffffffffffffffffffffff167fddf252ad1be2c89b69c2b068fc378daa952ba7f163c4a11628f55a4df523b3ef836040516105c19190610933565b60405180910390a350565b6000600460008373ffffffffffffffffffffffffffffffffffffffff1673ffffffffffffffffffffffffffffffffffffffff168152602001908152602001600020549050919050565b600660009054906101000a900473ffffffffffffffffffffffffffffffffffffffff1681565b6001805461064890610b3d565b80601f016020809104026020016040519081016040528092919081815260200182805461067490610b3d565b80156106c15780601f10610696576101008083540402835291602001916106c1565b820191906000526020600020905b8154815290600101906020018083116106a457829003601f168201915b505050505081565b6000600460003373ffffffffffffffffffffffffffffffffffffffff1673ffffffffffffffffffffffffffffffffffffffff1681526020019081526020016000205482111561074d576040517f08c379a000000000000000000000000000000000000000000000000000000000815260040161074490610caf565b60405180910390fd5b81600460003373ffffffffffffffffffffffffffffffffffffffff1673ffffffffffffffffffffffffffffffffffffffff168152602001908152602001600020600082825461079c9190610ccf565b9250508190555081600460008573ffffffffffffffffffffffffffffffffffffffff1673ffffffffffffffffffffffffffffffffffffffff16815260200190815260200160002060008282546107f29190610c2f565b925050819055508273ffffffffffffffffffffffffffffffffffffffff163373ffffffffffffffffffffffffffffffffffffffff167fddf252ad1be2c89b69c2b068fc378daa952ba7f163c4a11628f55a4df523b3ef846040516108569190610933565b60405180910390a36001905092915050565b600081519050919050565b600082825260208201905092915050565b60005b838110156108a2578082015181840152602081019050610887565b60008484015250505050565b6000601f19601f8301169050919050565b60006108ca82610868565b6108d48185610873565b93506108e4818560208601610884565b6108ed816108ae565b840191505092915050565b6000602082019050818103600083015261091281846108bf565b905092915050565b6000819050919050565b61092d8161091a565b82525050565b60006020820190506109486000830184610924565b92915050565b600060ff82169050919050565b6109648161094e565b82525050565b600060208201905061097f600083018461095b565b92915050565b600080fd5b600073ffffffffffffffffffffffffffffffffffffffff82169050919050565b60006109b58261098a565b9050919050565b6109c5816109aa565b81146109d057600080fd5b50565b6000813590506109e2816109bc565b92915050565b6109f18161091a565b81146109fc57600080fd5b50565b600081359050610a0e816109e8565b92915050565b60008060408385031215610a2b57610a2a610985565b5b6000610a39858286016109d3565b9250506020610a4a858286016109ff565b9150509250929050565b600060208284031215610a6a57610a69610985565b5b6000610a78848285016109ff565b91505092915050565b600060208284031215610a9757610a96610985565b5b6000610aa5848285016109d3565b91505092915050565b610ab7816109aa565b82525050565b6000602082019050610ad26000830184610aae565b92915050565b60008115159050919050565b610aed81610ad8565b82525050565b6000602082019050610b086000830184610ae4565b92915050565b7f4e487b7100000000000000000000000000000000000000000000000000000000600052602260045260246000fd5b60006002820490506001821680610b5557607f821691505b602082108103610b6857610b67610b0e565b5b50919050565b7f4f6e6c7920746865206f776e65722063616e2063616c6c20746869732066756e60008201527f6374696f6e2e0000000000000000000000000000000000000000000000000000602082015250565b6000610bca602683610873565b9150610bd582610b6e565b604082019050919050565b60006020820190508181036000830152610bf981610bbd565b9050919050565b7f4e487b7100000000000000000000000000000000000000000000000000000000600052601160045260246000fd5b6000610c3a8261091a565b9150610c458361091a565b9250828201905080821115610c5d57610c5c610c00565b5b92915050565b7f496e73756666696369656e742062616c616e63652e0000000000000000000000600082015250565b6000610c99601583610873565b9150610ca482610c63565b602082019050919050565b60006020820190508181036000830152610cc881610c8c565b9050919050565b6000610cda8261091a565b9150610ce58361091a565b9250828203905081811115610cfd57610cfc610c00565b5b9291505056fea26469706673582212200a353413b537b8ece40ec1402d9a61f82e14a699c26662945bfa75a99eb9d4b164736f6c63430008110033",
  "linkReferences": {},
  "deployedLinkReferences": {}
}